{
  "contractName": "Calorie",
  "abi": [
    {
      "inputs": [],
      "payable": false,
      "stateMutability": "nonpayable",
      "type": "constructor"
    },
    {
      "anonymous": false,
      "inputs": [
        {
          "indexed": false,
          "internalType": "string",
          "name": "message",
          "type": "string"
        },
        {
          "indexed": false,
          "internalType": "uint256",
          "name": "id",
          "type": "uint256"
        },
        {
          "indexed": false,
          "internalType": "string",
          "name": "foodName",
          "type": "string"
        },
        {
          "indexed": false,
          "internalType": "uint256",
          "name": "cal",
          "type": "uint256"
        }
      ],
      "name": "NewFoodItem",
      "type": "event"
    },
    {
      "anonymous": false,
      "inputs": [
        {
          "indexed": false,
          "internalType": "string",
          "name": "message",
          "type": "string"
        },
        {
          "indexed": false,
          "internalType": "uint256",
          "name": "cal",
          "type": "uint256"
        }
      ],
      "name": "calorieBurned",
      "type": "event"
    },
    {
      "anonymous": false,
      "inputs": [
        {
          "indexed": false,
          "internalType": "string",
          "name": "message",
          "type": "string"
        },
        {
          "indexed": false,
          "internalType": "uint256",
          "name": "dateSearched",
          "type": "uint256"
        }
      ],
      "name": "checkedCalByDate",
      "type": "event"
    },
    {
      "anonymous": false,
      "inputs": [
        {
          "indexed": false,
          "internalType": "string",
          "name": "message",
          "type": "string"
        },
        {
          "indexed": false,
          "internalType": "uint256",
          "name": "eth",
          "type": "uint256"
        },
        {
          "indexed": false,
          "internalType": "uint256",
          "name": "contractBalance",
          "type": "uint256"
        }
      ],
      "name": "contractGot",
      "type": "event"
    },
    {
      "anonymous": false,
      "inputs": [
        {
          "indexed": false,
          "internalType": "string",
          "name": "message",
          "type": "string"
        },
        {
          "indexed": false,
          "internalType": "uint256",
          "name": "paid",
          "type": "uint256"
        },
        {
          "indexed": false,
          "internalType": "uint256",
          "name": "userBalance",
          "type": "uint256"
        }
      ],
      "name": "paidUser",
      "type": "event"
    },
    {
      "constant": true,
      "inputs": [],
      "name": "burnedCal",
      "outputs": [
        {
          "internalType": "uint256",
          "name": "",
          "type": "uint256"
        }
      ],
      "payable": false,
      "stateMutability": "view",
      "type": "function"
    },
    {
      "constant": true,
      "inputs": [],
      "name": "dailyLimit",
      "outputs": [
        {
          "internalType": "uint256",
          "name": "",
          "type": "uint256"
        }
      ],
      "payable": false,
      "stateMutability": "view",
      "type": "function"
    },
    {
      "constant": true,
      "inputs": [],
      "name": "eatenCal",
      "outputs": [
        {
          "internalType": "uint256",
          "name": "",
          "type": "uint256"
        }
      ],
      "payable": false,
      "stateMutability": "view",
      "type": "function"
    },
    {
      "constant": true,
      "inputs": [
        {
          "internalType": "uint256",
          "name": "",
          "type": "uint256"
        }
      ],
      "name": "foodItems",
      "outputs": [
        {
          "internalType": "address",
          "name": "User",
          "type": "address"
        },
        {
          "internalType": "string",
          "name": "foodName",
          "type": "string"
        },
        {
          "internalType": "uint256",
          "name": "cal",
          "type": "uint256"
        },
        {
          "internalType": "uint256",
          "name": "dateReg",
          "type": "uint256"
        },
        {
          "internalType": "uint256",
          "name": "id",
          "type": "uint256"
        },
        {
          "internalType": "string",
          "name": "typeFood",
          "type": "string"
        }
      ],
      "payable": false,
      "stateMutability": "view",
      "type": "function"
    },
    {
      "constant": true,
      "inputs": [
        {
          "internalType": "uint256",
          "name": "",
          "type": "uint256"
        }
      ],
      "name": "foodToOwner",
      "outputs": [
        {
          "internalType": "address",
          "name": "",
          "type": "address"
        }
      ],
      "payable": false,
      "stateMutability": "view",
      "type": "function"
    },
    {
      "constant": true,
      "inputs": [],
      "name": "totalCal",
      "outputs": [
        {
          "internalType": "uint256",
          "name": "",
          "type": "uint256"
        }
      ],
      "payable": false,
      "stateMutability": "view",
      "type": "function"
    },
    {
      "constant": true,
      "inputs": [],
      "name": "user",
      "outputs": [
        {
          "internalType": "address",
          "name": "",
          "type": "address"
        }
      ],
      "payable": false,
      "stateMutability": "view",
      "type": "function"
    },
    {
      "constant": true,
      "inputs": [],
      "name": "foodItemLength",
      "outputs": [
        {
          "internalType": "uint256",
          "name": "count",
          "type": "uint256"
        }
      ],
      "payable": false,
      "stateMutability": "view",
      "type": "function"
    },
    {
      "constant": false,
      "inputs": [
        {
          "internalType": "string",
          "name": "_foodName",
          "type": "string"
        },
        {
          "internalType": "uint256",
          "name": "_cal",
          "type": "uint256"
        },
        {
          "internalType": "string",
          "name": "_typeFood",
          "type": "string"
        }
      ],
      "name": "addFoodItem",
      "outputs": [],
      "payable": false,
      "stateMutability": "nonpayable",
      "type": "function"
    },
    {
      "constant": true,
      "inputs": [
        {
          "internalType": "uint256",
          "name": "year",
          "type": "uint256"
        },
        {
          "internalType": "uint256",
          "name": "month",
          "type": "uint256"
        },
        {
          "internalType": "uint256",
          "name": "day",
          "type": "uint256"
        }
      ],
      "name": "getTotalCalEatenByDate",
      "outputs": [
        {
          "internalType": "uint256",
          "name": "",
          "type": "uint256"
        }
      ],
      "payable": false,
      "stateMutability": "view",
      "type": "function"
    },
    {
      "constant": false,
      "inputs": [
        {
          "internalType": "uint256",
          "name": "_cal",
          "type": "uint256"
        }
      ],
      "name": "burnCal",
      "outputs": [],
      "payable": false,
      "stateMutability": "nonpayable",
      "type": "function"
    },
    {
      "constant": true,
      "inputs": [
        {
          "internalType": "address",
          "name": "_owner",
          "type": "address"
        }
      ],
      "name": "getFoodItemFromOwner",
      "outputs": [
        {
          "internalType": "uint256[]",
          "name": "",
          "type": "uint256[]"
        }
      ],
      "payable": false,
      "stateMutability": "view",
      "type": "function"
    },
    {
      "constant": false,
      "inputs": [],
      "name": "stopContract",
      "outputs": [],
      "payable": false,
      "stateMutability": "nonpayable",
      "type": "function"
    },
    {
      "constant": false,
      "inputs": [],
      "name": "resumeContract",
      "outputs": [],
      "payable": false,
      "stateMutability": "nonpayable",
      "type": "function"
    },
    {
      "constant": false,
      "inputs": [],
      "name": "payOutUser",
      "outputs": [],
      "payable": true,
      "stateMutability": "payable",
      "type": "function"
    },
    {
      "constant": false,
      "inputs": [],
      "name": "destroyContract",
      "outputs": [],
      "payable": false,
      "stateMutability": "nonpayable",
      "type": "function"
    }
  ],
  "bytecode": "0x60806040526001546000540360025561076c6003556000600460146101000a81548160ff02191690831515021790555034801561003b57600080fd5b5033600460006101000a81548173ffffffffffffffffffffffffffffffffffffffff021916908373ffffffffffffffffffffffffffffffffffffffff1602179055506116a98061008c6000396000f3fe6080604052600436106100f35760003560e01c806367eeba0c1161008a578063c4bc5da511610059578063c4bc5da514610635578063cf9759641461064c578063e4d8ca51146106af578063ea0d1e5f146106da576100f3565b806367eeba0c146103eb5780637fcf9ff51461041657806388c0c84a1461045157806390b4f5cc146104cc576100f3565b80631dcd109c116100c65780631dcd109c146102b95780631fceb1f1146102e4578063290bfd79146102ee5780634f8632ba14610394576100f3565b8063092a5cce146100f85780630ac52e651461010f57806312253a6c1461027757806319b157711461028e575b600080fd5b34801561010457600080fd5b5061010d610705565b005b34801561011b57600080fd5b506101486004803603602081101561013257600080fd5b8101908080359060200190929190505050610778565b604051808773ffffffffffffffffffffffffffffffffffffffff1673ffffffffffffffffffffffffffffffffffffffff1681526020018060200186815260200185815260200184815260200180602001838103835288818151815260200191508051906020019080838360005b838110156101d05780820151818401526020810190506101b5565b50505050905090810190601f1680156101fd5780820380516001836020036101000a031916815260200191505b50838103825284818151815260200191508051906020019080838360005b8381101561023657808201518184015260208101905061021b565b50505050905090810190601f1680156102635780820380516001836020036101000a031916815260200191505b509850505050505050505060405180910390f35b34801561028357600080fd5b5061028c610911565b005b34801561029a57600080fd5b506102a3610988565b6040518082815260200191505060405180910390f35b3480156102c557600080fd5b506102ce610995565b6040518082815260200191505060405180910390f35b6102ec61099b565b005b3480156102fa57600080fd5b5061033d6004803603602081101561031157600080fd5b81019080803573ffffffffffffffffffffffffffffffffffffffff1690602001909291905050506109b7565b6040518080602001828103825283818151815260200191508051906020019060200280838360005b83811015610380578082015181840152602081019050610365565b505050509050019250505060405180910390f35b3480156103a057600080fd5b506103a9610ae4565b604051808273ffffffffffffffffffffffffffffffffffffffff1673ffffffffffffffffffffffffffffffffffffffff16815260200191505060405180910390f35b3480156103f757600080fd5b50610400610b0a565b6040518082815260200191505060405180910390f35b34801561042257600080fd5b5061044f6004803603602081101561043957600080fd5b8101908080359060200190929190505050610b10565b005b34801561045d57600080fd5b5061048a6004803603602081101561047457600080fd5b8101908080359060200190929190505050610ba3565b604051808273ffffffffffffffffffffffffffffffffffffffff1673ffffffffffffffffffffffffffffffffffffffff16815260200191505060405180910390f35b3480156104d857600080fd5b50610633600480360360608110156104ef57600080fd5b810190808035906020019064010000000081111561050c57600080fd5b82018360208201111561051e57600080fd5b8035906020019184600183028401116401000000008311171561054057600080fd5b91908080601f016020809104026020016040519081016040528093929190818152602001838380828437600081840152601f19601f82011690508083019250505050505050919291929080359060200190929190803590602001906401000000008111156105ad57600080fd5b8201836020820111156105bf57600080fd5b803590602001918460018302840111640100000000831117156105e157600080fd5b91908080601f016020809104026020016040519081016040528093929190818152602001838380828437600081840152601f19601f820116905080830192505050505050509192919290505050610bd6565b005b34801561064157600080fd5b5061064a610be6565b005b34801561065857600080fd5b506106996004803603606081101561066f57600080fd5b81019080803590602001909291908035906020019092919080359060200190929190505050610c5d565b6040518082815260200191505060405180910390f35b3480156106bb57600080fd5b506106c4610c80565b6040518082815260200191505060405180910390f35b3480156106e657600080fd5b506106ef610c86565b6040518082815260200191505060405180910390f35b600460009054906101000a900473ffffffffffffffffffffffffffffffffffffffff1673ffffffffffffffffffffffffffffffffffffffff163373ffffffffffffffffffffffffffffffffffffffff161461075f57600080fd5b3373ffffffffffffffffffffffffffffffffffffffff16ff5b6005818154811061078557fe5b90600052602060002090600602016000915090508060000160009054906101000a900473ffffffffffffffffffffffffffffffffffffffff1690806001018054600181600116156101000203166002900480601f0160208091040260200160405190810160405280929190818152602001828054600181600116156101000203166002900480156108575780601f1061082c57610100808354040283529160200191610857565b820191906000526020600020905b81548152906001019060200180831161083a57829003601f168201915b505050505090806002015490806003015490806004015490806005018054600181600116156101000203166002900480601f0160208091040260200160405190810160405280929190818152602001828054600181600116156101000203166002900480156109075780601f106108dc57610100808354040283529160200191610907565b820191906000526020600020905b8154815290600101906020018083116108ea57829003601f168201915b5050505050905086565b600460009054906101000a900473ffffffffffffffffffffffffffffffffffffffff1673ffffffffffffffffffffffffffffffffffffffff163373ffffffffffffffffffffffffffffffffffffffff161461096b57600080fd5b6001600460146101000a81548160ff021916908315150217905550565b6000600580549050905090565b60025481565b600460149054906101000a900460ff16156109b557600080fd5b565b606080600a60008473ffffffffffffffffffffffffffffffffffffffff1673ffffffffffffffffffffffffffffffffffffffff16815260200190815260200160002054604051908082528060200260200182016040528015610a285781602001602082028038833980820191505090505b509050600080905060008090505b600580549050811015610ad9578473ffffffffffffffffffffffffffffffffffffffff166007600083815260200190815260200160002060009054906101000a900473ffffffffffffffffffffffffffffffffffffffff1673ffffffffffffffffffffffffffffffffffffffff161415610acc5780838381518110610ab757fe5b60200260200101818152505081806001019250505b8080600101915050610a36565b508192505050919050565b600460009054906101000a900473ffffffffffffffffffffffffffffffffffffffff1681565b60035481565b80600160008282540192505081905550806002600082825403925050819055507f0c9602d096aa891456b3199b0fc0032f0ea5a17ef8e8a622013505265f9d71fa816040518080602001838152602001828103825260178152602001807f5765206275726e656420736f6d652063616c6f726965730000000000000000008152506020019250505060405180910390a150565b60076020528060005260406000206000915054906101000a900473ffffffffffffffffffffffffffffffffffffffff1681565b610be1838383610c8c565b505050565b600460009054906101000a900473ffffffffffffffffffffffffffffffffffffffff1673ffffffffffffffffffffffffffffffffffffffff163373ffffffffffffffffffffffffffffffffffffffff1614610c4057600080fd5b6000600460146101000a81548160ff021916908315150217905550565b600080610c6b8585856111b2565b9050610c76816111c8565b9150509392505050565b60005481565b60015481565b60608390506001815111610ceb576040517f08c379a00000000000000000000000000000000000000000000000000000000081526004018080602001828103825260248152602001806116026024913960400191505060405180910390fd5b60008311610d44576040517f08c379a000000000000000000000000000000000000000000000000000000000815260040180806020018281038252602781526020018061164e6027913960400191505060405180910390fd5b6000429050610d51611510565b6040518060c001604052803373ffffffffffffffffffffffffffffffffffffffff168152602001878152602001868152602001838152602001610d92610988565b8152602001858152509050600060016005839080600181540180825580915050906001820390600052602060002090600602016000909192909190915060008201518160000160006101000a81548173ffffffffffffffffffffffffffffffffffffffff021916908373ffffffffffffffffffffffffffffffffffffffff1602179055506020820151816001019080519060200190610e3292919061155c565b5060408201518160020155606082015181600301556080820151816004015560a0820151816005019080519060200190610e6d92919061155c565b50505003905081600660003373ffffffffffffffffffffffffffffffffffffffff1673ffffffffffffffffffffffffffffffffffffffff16815260200190815260200160002060008201518160000160006101000a81548173ffffffffffffffffffffffffffffffffffffffff021916908373ffffffffffffffffffffffffffffffffffffffff1602179055506020820151816001019080519060200190610f1692919061155c565b5060408201518160020155606082015181600301556080820151816004015560a0820151816005019080519060200190610f5192919061155c565b50905050336007600083815260200190815260200160002060006101000a81548173ffffffffffffffffffffffffffffffffffffffff021916908373ffffffffffffffffffffffffffffffffffffffff160217905550610ffa6001600a60003373ffffffffffffffffffffffffffffffffffffffff1673ffffffffffffffffffffffffffffffffffffffff1681526020019081526020016000205461130890919063ffffffff16565b600a60003373ffffffffffffffffffffffffffffffffffffffff1673ffffffffffffffffffffffffffffffffffffffff16815260200190815260200160002081905550600080600061104b86611324565b9250925092506000818385010160405160200180828152602001915050604051602081830303815290604052805190602001209050896008600083815260200190815260200160002060008282540192505081905550896002600082825401925050819055508960008082825401925050819055507f21ecc0dcab7d3e5f84e8150fb6c7599b8036083992e9e2d4fc4096c65ae53540858c8c604051808060200185815260200180602001848152602001838103835260138152602001807f4e657720466f6f64206974656d20616464656400000000000000000000000000815250602001838103825285818151815260200191508051906020019080838360005b8381101561116857808201518184015260208101905061114d565b50505050905090810190601f1680156111955780820380516001836020036101000a031916815260200191505b509550505050505060405180910390a15050505050505050505050565b60006111bf848484611345565b90509392505050565b60008060058054905011611244576040517f08c379a000000000000000000000000000000000000000000000000000000000815260040180806020018281038252601b8152602001807f596f752068617665206e6f20666f6f64206974656d206164646564000000000081525060200191505060405180910390fd5b6000809050600080600061125786611324565b925092509250600081838501016040516020018082815260200191505060405160208183030381529060405280519060200120905060086000828152602001908152602001600020549450600085116112fb576040517f08c379a00000000000000000000000000000000000000000000000000000000081526004018080602001828103825260288152602001806116266028913960400191505060405180910390fd5b8495505050505050919050565b60008082840190508381101561131a57fe5b8091505092915050565b600080600061133284611360565b8093508194508295505050509193909250565b60006201518061135685858561138d565b0290509392505050565b600080600061137a62015180858161137457fe5b0461143c565b8093508194508295505050509193909250565b60006107b284101561139e57600080fd5b600084905060008490506000849050600062253d8c60046064600c600e8703816113c457fe5b05611324880101816113d257fe5b05600302816113dd57fe5b05600c80600c600e8803816113ee57fe5b0502600287030361016f028161140057fe5b056004600c600e88038161141057fe5b056112c08901016105b5028161142257fe5b05617d4b8603010103039050809450505050509392505050565b600080600080849050600062253d8c62010bd98301019050600062023ab1826004028161146557fe5b059050600460038262023ab102018161147a57fe5b0582039150600062164b0960018401610fa0028161149457fe5b059050601f6004826105b502816114a757fe5b058403019250600061098f84605002816114bd57fe5b059050600060508261098f02816114d057fe5b0585039050600b82816114df57fe5b05945084600c0260028301039150848360318603606402010192508298508197508096505050505050509193909250565b6040518060c00160405280600073ffffffffffffffffffffffffffffffffffffffff16815260200160608152602001600081526020016000815260200160008152602001606081525090565b828054600181600116156101000203166002900490600052602060002090601f016020900481019282601f1061159d57805160ff19168380011785556115cb565b828001600101855582156115cb579182015b828111156115ca5782518255916020019190600101906115af565b5b5090506115d891906115dc565b5090565b6115fe91905b808211156115fa5760008160009055506001016115e2565b5090565b9056fe446964206e6f74207265636569766520746865206e616d65206f662074686520666f6f6454686572652077657265206e6f20666f6f6473206164646564207769746820746869732064617465446964206e6f742072656365697665207468652063616c6f726965206f662074686520666f6f64a265627a7a72315820defac046a677b864d23a47f6a4b8658b4ab9bbe86113533c083c43c850a148f364736f6c634300050c0032",
  "source": "pragma solidity ^0.5.12;\n\nimport \"./BokkyPooBahsDateTimeLibrary.sol\";\nimport \"./safemath.sol\";\n\n/// @title A Calorie tracker\n/// @author Djamaile Rahamat\n/// @dev some functions can be extracted to their own file\ncontract Calorie {\n    \n    using SafeMath for uint256;\n    using SafeMath32 for uint32;\n    using SafeMath16 for uint16;\n\n    event NewFoodItem(string message, uint id, string foodName, uint cal);\n    event calorieBurned(string message, uint cal);\n    event checkedCalByDate(string message, uint dateSearched);\n    event paidUser(string message, uint paid, uint userBalance);\n    event contractGot(string message, uint eth, uint contractBalance);\n\n    uint public eatenCal;\n    uint public burnedCal;\n    uint public totalCal = eatenCal - burnedCal;\n    uint public dailyLimit = 1900;\n    address public user;\n    bool isStopped = false;\n\n   modifier stoppedInEmergency {require(!isStopped); _; }\n   modifier onlyAuthorized { require(msg.sender == user); _;}\n\n    struct FoodItem {\n        address User;\n        string foodName;\n        uint cal;\n        uint dateReg;\n        uint id;\n        string typeFood;\n    }\n\n    FoodItem[] public foodItems;\n    mapping(address => FoodItem) foodItemMap;\n    mapping (uint => address) public foodToOwner;\n    mapping(bytes32 => uint) totalCaloriesByDate;\n    mapping(address => uint) userBalance;\n    mapping (address => uint) ownerFoodItemCount;\n    \n    constructor() public {\n        user = msg.sender;\n    }\n\n    /// @param _foodName, the name of the food\n    /// @param _cal, the amount of calories of the food\n    function _addFoodItem(string memory _foodName, uint _cal, string memory _typeFood) private {\n        bytes memory _foodNameB = bytes(_foodName);\n        require(_foodNameB.length > 1, \"Did not receive the name of the food\");\n        require(_cal > 0, \"Did not receive the calorie of the food\");\n        uint _dateReg = now;\n        FoodItem memory foodItem = FoodItem(msg.sender,_foodName, _cal, _dateReg, foodItemLength(), _typeFood);\n        uint id = foodItems.push(foodItem) - 1;\n        foodItemMap[msg.sender] = foodItem;\n        foodToOwner[id] = msg.sender;\n        ownerFoodItemCount[msg.sender] = ownerFoodItemCount[msg.sender].add(1);\n        (uint year, uint month, uint day) = timestampToDate(_dateReg);\n        bytes32 dateFormatedToBytes = keccak256(abi.encodePacked(year + month + day));\n        totalCaloriesByDate[dateFormatedToBytes] += _cal;\n        totalCal += _cal;\n        eatenCal += _cal;\n        emit NewFoodItem(\"New Food item added\", id, _foodName, _cal);\n    }\n    \n    /// @return the amount of food items the user has\n    function foodItemLength() public view returns(uint count) {\n        return foodItems.length;\n    }\n\n    /// @dev public function for _addFoodItem\n    function addFoodItem(string memory _foodName, uint _cal, string memory _typeFood) public {\n        _addFoodItem(_foodName, _cal, _typeFood);\n    }\n\n    /// @param _date, the date of the food when it was added\n    /// @return the total calories that day was eaten\n    function _getTotalCalEatenByDate(uint _date) private view returns (uint) {\n        require(foodItems.length > 0, \"You have no food item added\");\n        uint _totalCal = 0;\n        (uint searchedYear, uint searchedMonth, uint searchedDay ) = timestampToDate(_date);\n        bytes32 searchedDate = keccak256(abi.encodePacked(searchedYear + searchedMonth + searchedDay));\n        _totalCal = totalCaloriesByDate[searchedDate];\n        require(_totalCal > 0, \"There were no foods added with this date\");\n        return _totalCal;\n    }\n\n    /// @dev public function for _getTotalCalEatenByDate\n    function getTotalCalEatenByDate(uint year, uint month, uint day)public view returns (uint){\n        uint unixTimeStamp = timestampFromDate(year,month,day);\n        return _getTotalCalEatenByDate(unixTimeStamp);\n    }\n\n    /// @param year, the year of the food when it was added\n    /// @param month, the year of the food when it was added\n    /// @param day, the year of the food when it was added\n    /// @return the date from a unix timestamp\n    /// @dev uses the BokkyPooBahsDateTimeLibrary to convert a timestamp to date\n    function timestampFromDate(uint year, uint month, uint day) private pure returns (uint timestamp) {\n        return BokkyPooBahsDateTimeLibrary.timestampFromDate(year, month, day);\n    }\n\n    /// @param timestamp, UNIX timestamp\n    function timestampToDate(uint timestamp) private pure returns (uint year, uint month, uint day) {\n        (year, month, day) = BokkyPooBahsDateTimeLibrary.timestampToDate(timestamp);\n    }\n\n    /// @param _cal, amount of calories the user has burned\n    function burnCal(uint _cal) public {\n        burnedCal += _cal;\n        totalCal -= _cal;\n        emit calorieBurned(\"We burned some calories\", _cal);\n    }\n\n    /// @param _owner, address of the user\n    /// @return get all the id's of the food items of the user\n    function getFoodItemFromOwner(address _owner) external view returns  (uint[] memory){\n        uint[] memory result = new uint[](ownerFoodItemCount[_owner]);\n        uint counter = 0;\n        for (uint i = 0; i < foodItems.length; i++) {\n          if (foodToOwner[i] == _owner) {\n            result[counter] = i;\n            counter++;\n          }\n        }\n        return result;\n    }\n\n    function stopContract() public onlyAuthorized {\n        isStopped = true;\n    }\n    \n    function resumeContract() public onlyAuthorized {\n        isStopped = false;\n    }\n    \n    function payOutUser() public payable stoppedInEmergency{\n         /*\n     The idea is that a user will get tokens based on his burned calories - eaten calories that is over the daily limit.\n     For example, John has daily limit of 1900 calories he can eat per day. He burns 400 calories that day and is still\n     within his limit of 1900 calories, he will get paid 400 calorie tokens. But if John ate 2100 calories and burned 400,\n     he would only get 200 calorie tokens.\n\n     This is still a idea in progress.\n    */\n    }\n    \n    function destroyContract() public onlyAuthorized {\n        selfdestruct(msg.sender);\n    }   \n}",
  "sourcePath": "/Users/djamaile/Desktop/BC1_Djamaile/Day_15_Wed_22_1_2020/blockchain/contracts/Calorie.sol",
  "compiler": {
    "name": "solc",
    "version": "0.5.12+commit.7709ece9.Emscripten.clang"
  },
  "schemaVersion": "3.0.20",
  "updatedAt": "2020-01-26T13:09:23.947Z",
  "networkType": "ethereum",
  "devdoc": {
    "author": "Djamaile Rahamat",
    "details": "some functions can be extracted to their own file",
    "methods": {
      "addFoodItem(string,uint256,string)": {
        "details": "public function for _addFoodItem"
      },
      "burnCal(uint256)": {
        "params": {
          "_cal": ", amount of calories the user has burned"
        }
      },
      "foodItemLength()": {
        "return": "the amount of food items the user has"
      },
      "getFoodItemFromOwner(address)": {
        "params": {
          "_owner": ", address of the user"
        },
        "return": "get all the id's of the food items of the user"
      },
      "getTotalCalEatenByDate(uint256,uint256,uint256)": {
        "details": "public function for _getTotalCalEatenByDate"
      }
    },
    "title": "A Calorie tracker"
  },
  "userdoc": {
    "methods": {}
  }
}